{
  "_format": "hh-sol-artifact-1",
  "contractName": "PredictionMarket",
  "sourceName": "contracts/PredictionMarket.sol",
  "abi": [
    {
      "inputs": [],
      "stateMutability": "nonpayable",
      "type": "constructor"
    },
    {
      "inputs": [],
      "name": "USDC",
      "outputs": [
        {
          "internalType": "address",
          "name": "",
          "type": "address"
        }
      ],
      "stateMutability": "view",
      "type": "function"
    },
    {
      "inputs": [],
      "name": "USDT",
      "outputs": [
        {
          "internalType": "address",
          "name": "",
          "type": "address"
        }
      ],
      "stateMutability": "view",
      "type": "function"
    },
    {
      "inputs": [],
      "name": "allMarkets",
      "outputs": [
        {
          "components": [
            {
              "internalType": "uint256",
              "name": "id",
              "type": "uint256"
            },
            {
              "internalType": "string",
              "name": "question",
              "type": "string"
            },
            {
              "internalType": "uint256",
              "name": "yesVotes",
              "type": "uint256"
            },
            {
              "internalType": "uint256",
              "name": "noVotes",
              "type": "uint256"
            },
            {
              "internalType": "bool",
              "name": "resolved",
              "type": "bool"
            },
            {
              "internalType": "uint8",
              "name": "outcome",
              "type": "uint8"
            }
          ],
          "internalType": "struct PredictionMarket.Market[]",
          "name": "",
          "type": "tuple[]"
        }
      ],
      "stateMutability": "view",
      "type": "function"
    },
    {
      "inputs": [
        {
          "internalType": "uint256",
          "name": "_marketId",
          "type": "uint256"
        },
        {
          "internalType": "uint8",
          "name": "_side",
          "type": "uint8"
        },
        {
          "internalType": "uint256",
          "name": "_amount",
          "type": "uint256"
        },
        {
          "internalType": "uint8",
          "name": "_token",
          "type": "uint8"
        }
      ],
      "name": "buyShares",
      "outputs": [],
      "stateMutability": "nonpayable",
      "type": "function"
    },
    {
      "inputs": [
        {
          "internalType": "uint256",
          "name": "_marketId",
          "type": "uint256"
        }
      ],
      "name": "claimWinnings",
      "outputs": [],
      "stateMutability": "nonpayable",
      "type": "function"
    },
    {
      "inputs": [
        {
          "internalType": "string",
          "name": "_question",
          "type": "string"
        }
      ],
      "name": "createMarket",
      "outputs": [],
      "stateMutability": "nonpayable",
      "type": "function"
    },
    {
      "inputs": [
        {
          "internalType": "uint256",
          "name": "",
          "type": "uint256"
        }
      ],
      "name": "markets",
      "outputs": [
        {
          "internalType": "uint256",
          "name": "id",
          "type": "uint256"
        },
        {
          "internalType": "string",
          "name": "question",
          "type": "string"
        },
        {
          "internalType": "uint256",
          "name": "yesVotes",
          "type": "uint256"
        },
        {
          "internalType": "uint256",
          "name": "noVotes",
          "type": "uint256"
        },
        {
          "internalType": "bool",
          "name": "resolved",
          "type": "bool"
        },
        {
          "internalType": "uint8",
          "name": "outcome",
          "type": "uint8"
        }
      ],
      "stateMutability": "view",
      "type": "function"
    },
    {
      "inputs": [],
      "name": "nextMarketId",
      "outputs": [
        {
          "internalType": "uint256",
          "name": "",
          "type": "uint256"
        }
      ],
      "stateMutability": "view",
      "type": "function"
    },
    {
      "inputs": [],
      "name": "owner",
      "outputs": [
        {
          "internalType": "address",
          "name": "",
          "type": "address"
        }
      ],
      "stateMutability": "view",
      "type": "function"
    },
    {
      "inputs": [
        {
          "internalType": "uint256",
          "name": "_marketId",
          "type": "uint256"
        },
        {
          "internalType": "uint8",
          "name": "_outcome",
          "type": "uint8"
        }
      ],
      "name": "resolveMarket",
      "outputs": [],
      "stateMutability": "nonpayable",
      "type": "function"
    },
    {
      "inputs": [
        {
          "internalType": "uint256",
          "name": "",
          "type": "uint256"
        },
        {
          "internalType": "address",
          "name": "",
          "type": "address"
        }
      ],
      "name": "userNoShares",
      "outputs": [
        {
          "internalType": "uint256",
          "name": "",
          "type": "uint256"
        }
      ],
      "stateMutability": "view",
      "type": "function"
    },
    {
      "inputs": [
        {
          "internalType": "uint256",
          "name": "",
          "type": "uint256"
        },
        {
          "internalType": "address",
          "name": "",
          "type": "address"
        }
      ],
      "name": "userYesShares",
      "outputs": [
        {
          "internalType": "uint256",
          "name": "",
          "type": "uint256"
        }
      ],
      "stateMutability": "view",
      "type": "function"
    },
    {
      "inputs": [
        {
          "internalType": "address",
          "name": "_token",
          "type": "address"
        }
      ],
      "name": "withdrawToken",
      "outputs": [],
      "stateMutability": "nonpayable",
      "type": "function"
    }
  ],
  "bytecode": "0x6080604052348015600f57600080fd5b50336000806101000a81548173ffffffffffffffffffffffffffffffffffffffff021916908373ffffffffffffffffffffffffffffffffffffffff1602179055506122918061005f6000396000f3fe608060405234801561001057600080fd5b50600436106100cf5760003560e01c8063894760691161008c5780639d536597116100665780639d536597146101ec578063b1283e771461021c578063c54e44eb14610251578063df55406e1461026f576100cf565b8063894760691461019457806389a30271146101b05780638da5cb5b146101ce576100cf565b80633442573c146100d4578063375a7cba146100f0578063406ef2ef1461010e57806354888f551461012c578063677bd9ff146101485780638878c04814610164575b600080fd5b6100ee60048036038101906100e991906112c3565b61028b565b005b6100f861052c565b604051610105919061153e565b60405180910390f35b6101166106ce565b604051610123919061156f565b60405180910390f35b610146600480360381019061014191906116bf565b6106d4565b005b610162600480360381019061015d9190611708565b610842565b005b61017e60048036038101906101799190611793565b610d87565b60405161018b919061156f565b60405180910390f35b6101ae60048036038101906101a991906117d3565b610dac565b005b6101b8610f5b565b6040516101c5919061180f565b60405180910390f35b6101d6610f73565b6040516101e3919061180f565b60405180910390f35b61020660048036038101906102019190611793565b610f97565b604051610213919061156f565b60405180910390f35b61023660048036038101906102319190611708565b610fbc565b60405161024896959493929190611892565b60405180910390f35b61025961109a565b604051610266919061180f565b60405180910390f35b610289600480360381019061028491906118fa565b6110b2565b005b6001600085815260200190815260200160002060040160009054906101000a900460ff16156102ef576040517f08c379a00000000000000000000000000000000000000000000000000000000081526004016102e690611986565b60405180910390fd5b6000808260ff161461031557732791bca1f2de4661ed88a30c99a7a9449aa8417461032b565b73c2132d05d31c914a87c6611c10748aeb04b58e8f5b90508073ffffffffffffffffffffffffffffffffffffffff166323b872dd3330866040518463ffffffff1660e01b815260040161036a939291906119a6565b6020604051808303816000875af1158015610389573d6000803e3d6000fd5b505050506040513d601f19601f820116820180604052508101906103ad9190611a09565b6103ec576040517f08c379a00000000000000000000000000000000000000000000000000000000081526004016103e390611a82565b60405180910390fd5b60018460ff1603610490578260016000878152602001908152602001600020600201600082825461041d9190611ad1565b92505081905550826003600087815260200190815260200160002060003373ffffffffffffffffffffffffffffffffffffffff1673ffffffffffffffffffffffffffffffffffffffff16815260200190815260200160002060008282546104849190611ad1565b92505081905550610525565b826001600087815260200190815260200160002060030160008282546104b69190611ad1565b92505081905550826004600087815260200190815260200160002060003373ffffffffffffffffffffffffffffffffffffffff1673ffffffffffffffffffffffffffffffffffffffff168152602001908152602001600020600082825461051d9190611ad1565b925050819055505b5050505050565b6060600060025467ffffffffffffffff81111561054c5761054b611594565b5b60405190808252806020026020018201604052801561058557816020015b610572611205565b81526020019060019003908161056a5790505b50905060005b6002548110156106c657600160008281526020019081526020016000206040518060c0016040529081600082015481526020016001820180546105cd90611b34565b80601f01602080910402602001604051908101604052809291908181526020018280546105f990611b34565b80156106465780601f1061061b57610100808354040283529160200191610646565b820191906000526020600020905b81548152906001019060200180831161062957829003601f168201915b5050505050815260200160028201548152602001600382015481526020016004820160009054906101000a900460ff161515151581526020016004820160019054906101000a900460ff1660ff1660ff16815250508282815181106106ae576106ad611b65565b5b6020026020010181905250808060010191505061058b565b508091505090565b60025481565b60008054906101000a900473ffffffffffffffffffffffffffffffffffffffff1673ffffffffffffffffffffffffffffffffffffffff163373ffffffffffffffffffffffffffffffffffffffff1614610762576040517f08c379a000000000000000000000000000000000000000000000000000000000815260040161075990611be0565b60405180910390fd5b6040518060c0016040528060025481526020018281526020016000815260200160008152602001600015158152602001600060ff168152506001600060025481526020019081526020016000206000820151816000015560208201518160010190816107ce9190611dac565b50604082015181600201556060820151816003015560808201518160040160006101000a81548160ff02191690831515021790555060a08201518160040160016101000a81548160ff021916908360ff1602179055509050506002600081548092919061083a90611e7e565b919050555050565b6001600082815260200190815260200160002060040160009054906101000a900460ff166108a5576040517f08c379a000000000000000000000000000000000000000000000000000000000815260040161089c90611f12565b60405180910390fd5b60006001600083815260200190815260200160002060040160019054906101000a900460ff169050600080600060018460ff16036109bd576003600086815260200190815260200160002060003373ffffffffffffffffffffffffffffffffffffffff1673ffffffffffffffffffffffffffffffffffffffff168152602001908152602001600020549250600160008681526020019081526020016000206002015491506001600086815260200190815260200160002060030154905060006003600087815260200190815260200160002060003373ffffffffffffffffffffffffffffffffffffffff1673ffffffffffffffffffffffffffffffffffffffff16815260200190815260200160002081905550610a99565b6004600086815260200190815260200160002060003373ffffffffffffffffffffffffffffffffffffffff1673ffffffffffffffffffffffffffffffffffffffff168152602001908152602001600020549250600160008681526020019081526020016000206003015491506001600086815260200190815260200160002060020154905060006004600087815260200190815260200160002060003373ffffffffffffffffffffffffffffffffffffffff1673ffffffffffffffffffffffffffffffffffffffff168152602001908152602001600020819055505b60008311610adc576040517f08c379a0000000000000000000000000000000000000000000000000000000008152600401610ad390611f7e565b60405180910390fd5b60008211610b1f576040517f08c379a0000000000000000000000000000000000000000000000000000000008152600401610b1690611fea565b60405180910390fd5b60008183610b2d9190611ad1565b90506000838286610b3e919061200a565b610b48919061207b565b9050600073c2132d05d31c914a87c6611c10748aeb04b58e8f90506000732791bca1f2de4661ed88a30c99a7a9449aa841749050828273ffffffffffffffffffffffffffffffffffffffff166370a08231306040518263ffffffff1660e01b8152600401610bb6919061180f565b602060405180830381865afa158015610bd3573d6000803e3d6000fd5b505050506040513d601f19601f82011682018060405250810190610bf791906120c1565b10610cbe578173ffffffffffffffffffffffffffffffffffffffff1663a9059cbb33856040518363ffffffff1660e01b8152600401610c379291906120ee565b6020604051808303816000875af1158015610c56573d6000803e3d6000fd5b505050506040513d601f19601f82011682018060405250810190610c7a9190611a09565b610cb9576040517f08c379a0000000000000000000000000000000000000000000000000000000008152600401610cb090612163565b60405180910390fd5b610d7c565b8073ffffffffffffffffffffffffffffffffffffffff1663a9059cbb33856040518363ffffffff1660e01b8152600401610cf99291906120ee565b6020604051808303816000875af1158015610d18573d6000803e3d6000fd5b505050506040513d601f19601f82011682018060405250810190610d3c9190611a09565b610d7b576040517f08c379a0000000000000000000000000000000000000000000000000000000008152600401610d72906121cf565b60405180910390fd5b5b505050505050505050565b6004602052816000526040600020602052806000526040600020600091509150505481565b60008054906101000a900473ffffffffffffffffffffffffffffffffffffffff1673ffffffffffffffffffffffffffffffffffffffff163373ffffffffffffffffffffffffffffffffffffffff1614610e3a576040517f08c379a0000000000000000000000000000000000000000000000000000000008152600401610e3190611be0565b60405180910390fd5b60008173ffffffffffffffffffffffffffffffffffffffff166370a08231306040518263ffffffff1660e01b8152600401610e75919061180f565b602060405180830381865afa158015610e92573d6000803e3d6000fd5b505050506040513d601f19601f82011682018060405250810190610eb691906120c1565b90508173ffffffffffffffffffffffffffffffffffffffff1663a9059cbb60008054906101000a900473ffffffffffffffffffffffffffffffffffffffff16836040518363ffffffff1660e01b8152600401610f139291906120ee565b6020604051808303816000875af1158015610f32573d6000803e3d6000fd5b505050506040513d601f19601f82011682018060405250810190610f569190611a09565b505050565b732791bca1f2de4661ed88a30c99a7a9449aa8417481565b60008054906101000a900473ffffffffffffffffffffffffffffffffffffffff1681565b6003602052816000526040600020602052806000526040600020600091509150505481565b6001602052806000526040600020600091509050806000015490806001018054610fe590611b34565b80601f016020809104026020016040519081016040528092919081815260200182805461101190611b34565b801561105e5780601f106110335761010080835404028352916020019161105e565b820191906000526020600020905b81548152906001019060200180831161104157829003601f168201915b5050505050908060020154908060030154908060040160009054906101000a900460ff16908060040160019054906101000a900460ff16905086565b73c2132d05d31c914a87c6611c10748aeb04b58e8f81565b60008054906101000a900473ffffffffffffffffffffffffffffffffffffffff1673ffffffffffffffffffffffffffffffffffffffff163373ffffffffffffffffffffffffffffffffffffffff1614611140576040517f08c379a000000000000000000000000000000000000000000000000000000000815260040161113790611be0565b60405180910390fd5b6001600083815260200190815260200160002060040160009054906101000a900460ff16156111a4576040517f08c379a000000000000000000000000000000000000000000000000000000000815260040161119b9061223b565b60405180910390fd5b600180600084815260200190815260200160002060040160006101000a81548160ff021916908315150217905550806001600084815260200190815260200160002060040160016101000a81548160ff021916908360ff1602179055505050565b6040518060c0016040528060008152602001606081526020016000815260200160008152602001600015158152602001600060ff1681525090565b6000604051905090565b600080fd5b600080fd5b6000819050919050565b61126781611254565b811461127257600080fd5b50565b6000813590506112848161125e565b92915050565b600060ff82169050919050565b6112a08161128a565b81146112ab57600080fd5b50565b6000813590506112bd81611297565b92915050565b600080600080608085870312156112dd576112dc61124a565b5b60006112eb87828801611275565b94505060206112fc878288016112ae565b935050604061130d87828801611275565b925050606061131e878288016112ae565b91505092959194509250565b600081519050919050565b600082825260208201905092915050565b6000819050602082019050919050565b61135f81611254565b82525050565b600081519050919050565b600082825260208201905092915050565b60005b8381101561139f578082015181840152602081019050611384565b60008484015250505050565b6000601f19601f8301169050919050565b60006113c782611365565b6113d18185611370565b93506113e1818560208601611381565b6113ea816113ab565b840191505092915050565b60008115159050919050565b61140a816113f5565b82525050565b6114198161128a565b82525050565b600060c0830160008301516114376000860182611356565b506020830151848203602086015261144f82826113bc565b91505060408301516114646040860182611356565b5060608301516114776060860182611356565b50608083015161148a6080860182611401565b5060a083015161149d60a0860182611410565b508091505092915050565b60006114b4838361141f565b905092915050565b6000602082019050919050565b60006114d48261132a565b6114de8185611335565b9350836020820285016114f085611346565b8060005b8581101561152c578484038952815161150d85826114a8565b9450611518836114bc565b925060208a019950506001810190506114f4565b50829750879550505050505092915050565b6000602082019050818103600083015261155881846114c9565b905092915050565b61156981611254565b82525050565b60006020820190506115846000830184611560565b92915050565b600080fd5b600080fd5b7f4e487b7100000000000000000000000000000000000000000000000000000000600052604160045260246000fd5b6115cc826113ab565b810181811067ffffffffffffffff821117156115eb576115ea611594565b5b80604052505050565b60006115fe611240565b905061160a82826115c3565b919050565b600067ffffffffffffffff82111561162a57611629611594565b5b611633826113ab565b9050602081019050919050565b82818337600083830152505050565b600061166261165d8461160f565b6115f4565b90508281526020810184848401111561167e5761167d61158f565b5b611689848285611640565b509392505050565b600082601f8301126116a6576116a561158a565b5b81356116b684826020860161164f565b91505092915050565b6000602082840312156116d5576116d461124a565b5b600082013567ffffffffffffffff8111156116f3576116f261124f565b5b6116ff84828501611691565b91505092915050565b60006020828403121561171e5761171d61124a565b5b600061172c84828501611275565b91505092915050565b600073ffffffffffffffffffffffffffffffffffffffff82169050919050565b600061176082611735565b9050919050565b61177081611755565b811461177b57600080fd5b50565b60008135905061178d81611767565b92915050565b600080604083850312156117aa576117a961124a565b5b60006117b885828601611275565b92505060206117c98582860161177e565b9150509250929050565b6000602082840312156117e9576117e861124a565b5b60006117f78482850161177e565b91505092915050565b61180981611755565b82525050565b60006020820190506118246000830184611800565b92915050565b600082825260208201905092915050565b600061184682611365565b611850818561182a565b9350611860818560208601611381565b611869816113ab565b840191505092915050565b61187d816113f5565b82525050565b61188c8161128a565b82525050565b600060c0820190506118a76000830189611560565b81810360208301526118b9818861183b565b90506118c86040830187611560565b6118d56060830186611560565b6118e26080830185611874565b6118ef60a0830184611883565b979650505050505050565b600080604083850312156119115761191061124a565b5b600061191f85828601611275565b9250506020611930858286016112ae565b9150509250929050565b7f4d61726b6574207265736f6c7665640000000000000000000000000000000000600082015250565b6000611970600f8361182a565b915061197b8261193a565b602082019050919050565b6000602082019050818103600083015261199f81611963565b9050919050565b60006060820190506119bb6000830186611800565b6119c86020830185611800565b6119d56040830184611560565b949350505050565b6119e6816113f5565b81146119f157600080fd5b50565b600081519050611a03816119dd565b92915050565b600060208284031215611a1f57611a1e61124a565b5b6000611a2d848285016119f4565b91505092915050565b7f5472616e73666572206661696c65640000000000000000000000000000000000600082015250565b6000611a6c600f8361182a565b9150611a7782611a36565b602082019050919050565b60006020820190508181036000830152611a9b81611a5f565b9050919050565b7f4e487b7100000000000000000000000000000000000000000000000000000000600052601160045260246000fd5b6000611adc82611254565b9150611ae783611254565b9250828201905080821115611aff57611afe611aa2565b5b92915050565b7f4e487b7100000000000000000000000000000000000000000000000000000000600052602260045260246000fd5b60006002820490506001821680611b4c57607f821691505b602082108103611b5f57611b5e611b05565b5b50919050565b7f4e487b7100000000000000000000000000000000000000000000000000000000600052603260045260246000fd5b7f4f6e6c79206f776e657200000000000000000000000000000000000000000000600082015250565b6000611bca600a8361182a565b9150611bd582611b94565b602082019050919050565b60006020820190508181036000830152611bf981611bbd565b9050919050565b60008190508160005260206000209050919050565b60006020601f8301049050919050565b600082821b905092915050565b600060088302611c627fffffffffffffffffffffffffffffffffffffffffffffffffffffffffffffffff82611c25565b611c6c8683611c25565b95508019841693508086168417925050509392505050565b6000819050919050565b6000611ca9611ca4611c9f84611254565b611c84565b611254565b9050919050565b6000819050919050565b611cc383611c8e565b611cd7611ccf82611cb0565b848454611c32565b825550505050565b600090565b611cec611cdf565b611cf7818484611cba565b505050565b5b81811015611d1b57611d10600082611ce4565b600181019050611cfd565b5050565b601f821115611d6057611d3181611c00565b611d3a84611c15565b81016020851015611d49578190505b611d5d611d5585611c15565b830182611cfc565b50505b505050565b600082821c905092915050565b6000611d8360001984600802611d65565b1980831691505092915050565b6000611d9c8383611d72565b9150826002028217905092915050565b611db582611365565b67ffffffffffffffff811115611dce57611dcd611594565b5b611dd88254611b34565b611de3828285611d1f565b600060209050601f831160018114611e165760008415611e04578287015190505b611e0e8582611d90565b865550611e76565b601f198416611e2486611c00565b60005b82811015611e4c57848901518255600182019150602085019450602081019050611e27565b86831015611e695784890151611e65601f891682611d72565b8355505b6001600288020188555050505b505050505050565b6000611e8982611254565b91507fffffffffffffffffffffffffffffffffffffffffffffffffffffffffffffffff8203611ebb57611eba611aa2565b5b600182019050919050565b7f4d61726b6574206e6f74207265736f6c76656400000000000000000000000000600082015250565b6000611efc60138361182a565b9150611f0782611ec6565b602082019050919050565b60006020820190508181036000830152611f2b81611eef565b9050919050565b7f4e6f2077696e6e696e6773000000000000000000000000000000000000000000600082015250565b6000611f68600b8361182a565b9150611f7382611f32565b602082019050919050565b60006020820190508181036000830152611f9781611f5b565b9050919050565b7f57696e6e696e6720706f6f6c20656d7074790000000000000000000000000000600082015250565b6000611fd460128361182a565b9150611fdf82611f9e565b602082019050919050565b6000602082019050818103600083015261200381611fc7565b9050919050565b600061201582611254565b915061202083611254565b925082820261202e81611254565b9150828204841483151761204557612044611aa2565b5b5092915050565b7f4e487b7100000000000000000000000000000000000000000000000000000000600052601260045260246000fd5b600061208682611254565b915061209183611254565b9250826120a1576120a061204c565b5b828204905092915050565b6000815190506120bb8161125e565b92915050565b6000602082840312156120d7576120d661124a565b5b60006120e5848285016120ac565b91505092915050565b60006040820190506121036000830185611800565b6121106020830184611560565b9392505050565b7f55534454207472616e73666572206661696c6564000000000000000000000000600082015250565b600061214d60148361182a565b915061215882612117565b602082019050919050565b6000602082019050818103600083015261217c81612140565b9050919050565b7f55534443207472616e73666572206661696c6564000000000000000000000000600082015250565b60006121b960148361182a565b91506121c482612183565b602082019050919050565b600060208201905081810360008301526121e8816121ac565b9050919050565b7f416c7265616479207265736f6c76656400000000000000000000000000000000600082015250565b600061222560108361182a565b9150612230826121ef565b602082019050919050565b6000602082019050818103600083015261225481612218565b905091905056fea2646970667358221220b77d3f881bab49368552df9eab51e0059ad5d944a0789e4d5d0c7245a70d970d64736f6c634300081c0033",
  "linkReferences": {},
  "deployedLinkReferences": {}
}