{
  "_format": "hh-sol-artifact-1",
  "contractName": "PredictionMarket",
  "sourceName": "contracts/PredictionMarket.sol",
  "abi": [
    {
      "inputs": [],
      "name": "allMarkets",
      "outputs": [
        {
          "components": [
            {
              "internalType": "uint256",
              "name": "id",
              "type": "uint256"
            },
            {
              "internalType": "string",
              "name": "question",
              "type": "string"
            },
            {
              "internalType": "uint256",
              "name": "yesVotes",
              "type": "uint256"
            },
            {
              "internalType": "uint256",
              "name": "noVotes",
              "type": "uint256"
            },
            {
              "internalType": "bool",
              "name": "resolved",
              "type": "bool"
            },
            {
              "internalType": "uint8",
              "name": "outcome",
              "type": "uint8"
            }
          ],
          "internalType": "struct PredictionMarket.Market[]",
          "name": "",
          "type": "tuple[]"
        }
      ],
      "stateMutability": "view",
      "type": "function"
    },
    {
      "inputs": [
        {
          "internalType": "uint256",
          "name": "_marketId",
          "type": "uint256"
        },
        {
          "internalType": "uint8",
          "name": "_side",
          "type": "uint8"
        }
      ],
      "name": "buyShares",
      "outputs": [],
      "stateMutability": "payable",
      "type": "function"
    },
    {
      "inputs": [
        {
          "internalType": "string",
          "name": "_question",
          "type": "string"
        }
      ],
      "name": "createMarket",
      "outputs": [],
      "stateMutability": "nonpayable",
      "type": "function"
    },
    {
      "inputs": [
        {
          "internalType": "uint256",
          "name": "",
          "type": "uint256"
        }
      ],
      "name": "markets",
      "outputs": [
        {
          "internalType": "uint256",
          "name": "id",
          "type": "uint256"
        },
        {
          "internalType": "string",
          "name": "question",
          "type": "string"
        },
        {
          "internalType": "uint256",
          "name": "yesVotes",
          "type": "uint256"
        },
        {
          "internalType": "uint256",
          "name": "noVotes",
          "type": "uint256"
        },
        {
          "internalType": "bool",
          "name": "resolved",
          "type": "bool"
        },
        {
          "internalType": "uint8",
          "name": "outcome",
          "type": "uint8"
        }
      ],
      "stateMutability": "view",
      "type": "function"
    },
    {
      "inputs": [],
      "name": "nextMarketId",
      "outputs": [
        {
          "internalType": "uint256",
          "name": "",
          "type": "uint256"
        }
      ],
      "stateMutability": "view",
      "type": "function"
    }
  ],
  "bytecode": "0x6080604052348015600f57600080fd5b50610f738061001f6000396000f3fe60806040526004361061004a5760003560e01c8063375a7cba1461004f578063406ef2ef1461007a57806354888f55146100a5578063b1283e77146100ce578063cfd0d89b14610110575b600080fd5b34801561005b57600080fd5b5061006461012c565b60405161007191906107a6565b60405180910390f35b34801561008657600080fd5b5061008f6102cd565b60405161009c91906107d7565b60405180910390f35b3480156100b157600080fd5b506100cc60048036038101906100c7919061093b565b6102d3565b005b3480156100da57600080fd5b506100f560048036038101906100f091906109b0565b6103b2565b60405161010796959493929190610a45565b60405180910390f35b61012a60048036038101906101259190610ad9565b610490565b005b6060600060015467ffffffffffffffff81111561014c5761014b610810565b5b60405190808252806020026020018201604052801561018557816020015b610172610540565b81526020019060019003908161016a5790505b50905060005b6001548110156102c5576000808281526020019081526020016000206040518060c0016040529081600082015481526020016001820180546101cc90610b48565b80601f01602080910402602001604051908101604052809291908181526020018280546101f890610b48565b80156102455780601f1061021a57610100808354040283529160200191610245565b820191906000526020600020905b81548152906001019060200180831161022857829003601f168201915b5050505050815260200160028201548152602001600382015481526020016004820160009054906101000a900460ff161515151581526020016004820160019054906101000a900460ff1660ff1660ff16815250508282815181106102ad576102ac610b79565b5b6020026020010181905250808060010191505061018b565b508091505090565b60015481565b6040518060c0016040528060015481526020018281526020016000815260200160008152602001600015158152602001600060ff16815250600080600154815260200190815260200160002060008201518160000155602082015181600101908161033e9190610d54565b50604082015181600201556060820151816003015560808201518160040160006101000a81548160ff02191690831515021790555060a08201518160040160016101000a81548160ff021916908360ff160217905550905050600160008154809291906103aa90610e55565b919050555050565b60006020528060005260406000206000915090508060000154908060010180546103db90610b48565b80601f016020809104026020016040519081016040528092919081815260200182805461040790610b48565b80156104545780601f1061042957610100808354040283529160200191610454565b820191906000526020600020905b81548152906001019060200180831161043757829003601f168201915b5050505050908060020154908060030154908060040160009054906101000a900460ff16908060040160019054906101000a900460ff16905086565b600034116104d3576040517f08c379a00000000000000000000000000000000000000000000000000000000081526004016104ca90610ee9565b60405180910390fd5b60018160ff160361050f573460008084815260200190815260200160002060020160008282546105039190610f09565b9250508190555061053c565b3460008084815260200190815260200160002060030160008282546105349190610f09565b925050819055505b5050565b6040518060c0016040528060008152602001606081526020016000815260200160008152602001600015158152602001600060ff1681525090565b600081519050919050565b600082825260208201905092915050565b6000819050602082019050919050565b6000819050919050565b6105ba816105a7565b82525050565b600081519050919050565b600082825260208201905092915050565b60005b838110156105fa5780820151818401526020810190506105df565b60008484015250505050565b6000601f19601f8301169050919050565b6000610622826105c0565b61062c81856105cb565b935061063c8185602086016105dc565b61064581610606565b840191505092915050565b60008115159050919050565b61066581610650565b82525050565b600060ff82169050919050565b6106818161066b565b82525050565b600060c08301600083015161069f60008601826105b1565b50602083015184820360208601526106b78282610617565b91505060408301516106cc60408601826105b1565b5060608301516106df60608601826105b1565b5060808301516106f2608086018261065c565b5060a083015161070560a0860182610678565b508091505092915050565b600061071c8383610687565b905092915050565b6000602082019050919050565b600061073c8261057b565b6107468185610586565b93508360208202850161075885610597565b8060005b8581101561079457848403895281516107758582610710565b945061078083610724565b925060208a0199505060018101905061075c565b50829750879550505050505092915050565b600060208201905081810360008301526107c08184610731565b905092915050565b6107d1816105a7565b82525050565b60006020820190506107ec60008301846107c8565b92915050565b6000604051905090565b600080fd5b600080fd5b600080fd5b600080fd5b7f4e487b7100000000000000000000000000000000000000000000000000000000600052604160045260246000fd5b61084882610606565b810181811067ffffffffffffffff8211171561086757610866610810565b5b80604052505050565b600061087a6107f2565b9050610886828261083f565b919050565b600067ffffffffffffffff8211156108a6576108a5610810565b5b6108af82610606565b9050602081019050919050565b82818337600083830152505050565b60006108de6108d98461088b565b610870565b9050828152602081018484840111156108fa576108f961080b565b5b6109058482856108bc565b509392505050565b600082601f83011261092257610921610806565b5b81356109328482602086016108cb565b91505092915050565b600060208284031215610951576109506107fc565b5b600082013567ffffffffffffffff81111561096f5761096e610801565b5b61097b8482850161090d565b91505092915050565b61098d816105a7565b811461099857600080fd5b50565b6000813590506109aa81610984565b92915050565b6000602082840312156109c6576109c56107fc565b5b60006109d48482850161099b565b91505092915050565b600082825260208201905092915050565b60006109f9826105c0565b610a0381856109dd565b9350610a138185602086016105dc565b610a1c81610606565b840191505092915050565b610a3081610650565b82525050565b610a3f8161066b565b82525050565b600060c082019050610a5a60008301896107c8565b8181036020830152610a6c81886109ee565b9050610a7b60408301876107c8565b610a8860608301866107c8565b610a956080830185610a27565b610aa260a0830184610a36565b979650505050505050565b610ab68161066b565b8114610ac157600080fd5b50565b600081359050610ad381610aad565b92915050565b60008060408385031215610af057610aef6107fc565b5b6000610afe8582860161099b565b9250506020610b0f85828601610ac4565b9150509250929050565b7f4e487b7100000000000000000000000000000000000000000000000000000000600052602260045260246000fd5b60006002820490506001821680610b6057607f821691505b602082108103610b7357610b72610b19565b5b50919050565b7f4e487b7100000000000000000000000000000000000000000000000000000000600052603260045260246000fd5b60008190508160005260206000209050919050565b60006020601f8301049050919050565b600082821b905092915050565b600060088302610c0a7fffffffffffffffffffffffffffffffffffffffffffffffffffffffffffffffff82610bcd565b610c148683610bcd565b95508019841693508086168417925050509392505050565b6000819050919050565b6000610c51610c4c610c47846105a7565b610c2c565b6105a7565b9050919050565b6000819050919050565b610c6b83610c36565b610c7f610c7782610c58565b848454610bda565b825550505050565b600090565b610c94610c87565b610c9f818484610c62565b505050565b5b81811015610cc357610cb8600082610c8c565b600181019050610ca5565b5050565b601f821115610d0857610cd981610ba8565b610ce284610bbd565b81016020851015610cf1578190505b610d05610cfd85610bbd565b830182610ca4565b50505b505050565b600082821c905092915050565b6000610d2b60001984600802610d0d565b1980831691505092915050565b6000610d448383610d1a565b9150826002028217905092915050565b610d5d826105c0565b67ffffffffffffffff811115610d7657610d75610810565b5b610d808254610b48565b610d8b828285610cc7565b600060209050601f831160018114610dbe5760008415610dac578287015190505b610db68582610d38565b865550610e1e565b601f198416610dcc86610ba8565b60005b82811015610df457848901518255600182019150602085019450602081019050610dcf565b86831015610e115784890151610e0d601f891682610d1a565b8355505b6001600288020188555050505b505050505050565b7f4e487b7100000000000000000000000000000000000000000000000000000000600052601160045260246000fd5b6000610e60826105a7565b91507fffffffffffffffffffffffffffffffffffffffffffffffffffffffffffffffff8203610e9257610e91610e26565b5b600182019050919050565b7f456e76696120666f6e646f730000000000000000000000000000000000000000600082015250565b6000610ed3600c836109dd565b9150610ede82610e9d565b602082019050919050565b60006020820190508181036000830152610f0281610ec6565b9050919050565b6000610f14826105a7565b9150610f1f836105a7565b9250828201905080821115610f3757610f36610e26565b5b9291505056fea26469706673582212202e62ad35895f67f0001ecdef0c476f105a0b154416ff0f19a2246321d7a423de64736f6c634300081c0033",
  "linkReferences": {},
  "deployedLinkReferences": {}
}